{
  "contractName": "Petshop",
  "abi": [
    {
      "inputs": [
        {
          "internalType": "string",
          "name": "name",
          "type": "string"
        },
        {
          "internalType": "string",
          "name": "symbol",
          "type": "string"
        },
        {
          "internalType": "string",
          "name": "baseTokenURI",
          "type": "string"
        }
      ],
      "stateMutability": "nonpayable",
      "type": "constructor"
    },
    {
      "anonymous": false,
      "inputs": [
        {
          "indexed": true,
          "internalType": "address",
          "name": "owner",
          "type": "address"
        },
        {
          "indexed": true,
          "internalType": "address",
          "name": "approved",
          "type": "address"
        },
        {
          "indexed": true,
          "internalType": "uint256",
          "name": "tokenId",
          "type": "uint256"
        }
      ],
      "name": "Approval",
      "type": "event"
    },
    {
      "anonymous": false,
      "inputs": [
        {
          "indexed": true,
          "internalType": "address",
          "name": "owner",
          "type": "address"
        },
        {
          "indexed": true,
          "internalType": "address",
          "name": "operator",
          "type": "address"
        },
        {
          "indexed": false,
          "internalType": "bool",
          "name": "approved",
          "type": "bool"
        }
      ],
      "name": "ApprovalForAll",
      "type": "event"
    },
    {
      "anonymous": false,
      "inputs": [
        {
          "indexed": true,
          "internalType": "address",
          "name": "previousOwner",
          "type": "address"
        },
        {
          "indexed": true,
          "internalType": "address",
          "name": "newOwner",
          "type": "address"
        }
      ],
      "name": "OwnershipTransferred",
      "type": "event"
    },
    {
      "anonymous": false,
      "inputs": [
        {
          "indexed": true,
          "internalType": "address",
          "name": "owner",
          "type": "address"
        },
        {
          "indexed": false,
          "internalType": "uint256",
          "name": "tokenId",
          "type": "uint256"
        },
        {
          "indexed": false,
          "internalType": "uint256",
          "name": "price",
          "type": "uint256"
        },
        {
          "indexed": false,
          "internalType": "string",
          "name": "tokenURI",
          "type": "string"
        }
      ],
      "name": "PetCreated",
      "type": "event"
    },
    {
      "anonymous": false,
      "inputs": [
        {
          "indexed": false,
          "internalType": "uint256",
          "name": "tokenId",
          "type": "uint256"
        }
      ],
      "name": "PetDeleted",
      "type": "event"
    },
    {
      "anonymous": false,
      "inputs": [
        {
          "indexed": false,
          "internalType": "uint256",
          "name": "tokenId",
          "type": "uint256"
        },
        {
          "indexed": false,
          "internalType": "uint256",
          "name": "prevPrice",
          "type": "uint256"
        },
        {
          "indexed": false,
          "internalType": "uint256",
          "name": "newPrice",
          "type": "uint256"
        }
      ],
      "name": "PetPriceChanged",
      "type": "event"
    },
    {
      "anonymous": false,
      "inputs": [
        {
          "indexed": true,
          "internalType": "address",
          "name": "prevOwner",
          "type": "address"
        },
        {
          "indexed": true,
          "internalType": "address",
          "name": "newOwner",
          "type": "address"
        },
        {
          "indexed": false,
          "internalType": "uint256",
          "name": "tokenId",
          "type": "uint256"
        },
        {
          "indexed": false,
          "internalType": "uint256",
          "name": "price",
          "type": "uint256"
        }
      ],
      "name": "PetPurchase",
      "type": "event"
    },
    {
      "anonymous": false,
      "inputs": [
        {
          "indexed": true,
          "internalType": "address",
          "name": "from",
          "type": "address"
        },
        {
          "indexed": true,
          "internalType": "address",
          "name": "to",
          "type": "address"
        },
        {
          "indexed": true,
          "internalType": "uint256",
          "name": "tokenId",
          "type": "uint256"
        }
      ],
      "name": "Transfer",
      "type": "event"
    },
    {
      "inputs": [
        {
          "internalType": "address",
          "name": "to",
          "type": "address"
        },
        {
          "internalType": "uint256",
          "name": "tokenId",
          "type": "uint256"
        }
      ],
      "name": "approve",
      "outputs": [],
      "stateMutability": "nonpayable",
      "type": "function"
    },
    {
      "inputs": [
        {
          "internalType": "address",
          "name": "owner",
          "type": "address"
        }
      ],
      "name": "balanceOf",
      "outputs": [
        {
          "internalType": "uint256",
          "name": "",
          "type": "uint256"
        }
      ],
      "stateMutability": "view",
      "type": "function",
      "constant": true
    },
    {
      "inputs": [
        {
          "internalType": "uint256",
          "name": "tokenId",
          "type": "uint256"
        }
      ],
      "name": "getApproved",
      "outputs": [
        {
          "internalType": "address",
          "name": "",
          "type": "address"
        }
      ],
      "stateMutability": "view",
      "type": "function",
      "constant": true
    },
    {
      "inputs": [
        {
          "internalType": "address",
          "name": "owner",
          "type": "address"
        },
        {
          "internalType": "address",
          "name": "operator",
          "type": "address"
        }
      ],
      "name": "isApprovedForAll",
      "outputs": [
        {
          "internalType": "bool",
          "name": "",
          "type": "bool"
        }
      ],
      "stateMutability": "view",
      "type": "function",
      "constant": true
    },
    {
      "inputs": [],
      "name": "name",
      "outputs": [
        {
          "internalType": "string",
          "name": "",
          "type": "string"
        }
      ],
      "stateMutability": "view",
      "type": "function",
      "constant": true
    },
    {
      "inputs": [],
      "name": "owner",
      "outputs": [
        {
          "internalType": "address",
          "name": "",
          "type": "address"
        }
      ],
      "stateMutability": "view",
      "type": "function",
      "constant": true
    },
    {
      "inputs": [
        {
          "internalType": "uint256",
          "name": "tokenId",
          "type": "uint256"
        }
      ],
      "name": "ownerOf",
      "outputs": [
        {
          "internalType": "address",
          "name": "",
          "type": "address"
        }
      ],
      "stateMutability": "view",
      "type": "function",
      "constant": true
    },
    {
      "inputs": [
        {
          "internalType": "uint256",
          "name": "",
          "type": "uint256"
        }
      ],
      "name": "petsOnSale",
      "outputs": [
        {
          "internalType": "bool",
          "name": "",
          "type": "bool"
        }
      ],
      "stateMutability": "view",
      "type": "function",
      "constant": true
    },
    {
      "inputs": [],
      "name": "renounceOwnership",
      "outputs": [],
      "stateMutability": "nonpayable",
      "type": "function"
    },
    {
      "inputs": [
        {
          "internalType": "address",
          "name": "from",
          "type": "address"
        },
        {
          "internalType": "address",
          "name": "to",
          "type": "address"
        },
        {
          "internalType": "uint256",
          "name": "tokenId",
          "type": "uint256"
        }
      ],
      "name": "safeTransferFrom",
      "outputs": [],
      "stateMutability": "nonpayable",
      "type": "function"
    },
    {
      "inputs": [
        {
          "internalType": "address",
          "name": "from",
          "type": "address"
        },
        {
          "internalType": "address",
          "name": "to",
          "type": "address"
        },
        {
          "internalType": "uint256",
          "name": "tokenId",
          "type": "uint256"
        },
        {
          "internalType": "bytes",
          "name": "_data",
          "type": "bytes"
        }
      ],
      "name": "safeTransferFrom",
      "outputs": [],
      "stateMutability": "nonpayable",
      "type": "function"
    },
    {
      "inputs": [
        {
          "internalType": "address",
          "name": "operator",
          "type": "address"
        },
        {
          "internalType": "bool",
          "name": "approved",
          "type": "bool"
        }
      ],
      "name": "setApprovalForAll",
      "outputs": [],
      "stateMutability": "nonpayable",
      "type": "function"
    },
    {
      "inputs": [
        {
          "internalType": "bytes4",
          "name": "interfaceId",
          "type": "bytes4"
        }
      ],
      "name": "supportsInterface",
      "outputs": [
        {
          "internalType": "bool",
          "name": "",
          "type": "bool"
        }
      ],
      "stateMutability": "view",
      "type": "function",
      "constant": true
    },
    {
      "inputs": [],
      "name": "symbol",
      "outputs": [
        {
          "internalType": "string",
          "name": "",
          "type": "string"
        }
      ],
      "stateMutability": "view",
      "type": "function",
      "constant": true
    },
    {
      "inputs": [
        {
          "internalType": "uint256",
          "name": "",
          "type": "uint256"
        }
      ],
      "name": "tokenPrices",
      "outputs": [
        {
          "internalType": "uint256",
          "name": "",
          "type": "uint256"
        }
      ],
      "stateMutability": "view",
      "type": "function",
      "constant": true
    },
    {
      "inputs": [
        {
          "internalType": "uint256",
          "name": "tokenId",
          "type": "uint256"
        }
      ],
      "name": "tokenURI",
      "outputs": [
        {
          "internalType": "string",
          "name": "",
          "type": "string"
        }
      ],
      "stateMutability": "view",
      "type": "function",
      "constant": true
    },
    {
      "inputs": [
        {
          "internalType": "address",
          "name": "from",
          "type": "address"
        },
        {
          "internalType": "address",
          "name": "to",
          "type": "address"
        },
        {
          "internalType": "uint256",
          "name": "tokenId",
          "type": "uint256"
        }
      ],
      "name": "transferFrom",
      "outputs": [],
      "stateMutability": "nonpayable",
      "type": "function"
    },
    {
      "inputs": [
        {
          "internalType": "address",
          "name": "newOwner",
          "type": "address"
        }
      ],
      "name": "transferOwnership",
      "outputs": [],
      "stateMutability": "nonpayable",
      "type": "function"
    },
    {
      "stateMutability": "payable",
      "type": "receive",
      "payable": true
    },
    {
      "inputs": [
        {
          "internalType": "address",
          "name": "to_",
          "type": "address"
        },
        {
          "internalType": "uint256",
          "name": "price_",
          "type": "uint256"
        },
        {
          "internalType": "string",
          "name": "tokenURI_",
          "type": "string"
        }
      ],
      "name": "createPet",
      "outputs": [
        {
          "internalType": "uint256",
          "name": "",
          "type": "uint256"
        }
      ],
      "stateMutability": "nonpayable",
      "type": "function"
    },
    {
      "inputs": [
        {
          "internalType": "uint256",
          "name": "tokenId_",
          "type": "uint256"
        }
      ],
      "name": "deletePet",
      "outputs": [
        {
          "internalType": "uint256",
          "name": "",
          "type": "uint256"
        }
      ],
      "stateMutability": "nonpayable",
      "type": "function"
    },
    {
      "inputs": [
        {
          "internalType": "uint256",
          "name": "tokenId_",
          "type": "uint256"
        }
      ],
      "name": "buyPet",
      "outputs": [
        {
          "internalType": "bool",
          "name": "",
          "type": "bool"
        }
      ],
      "stateMutability": "payable",
      "type": "function",
      "payable": true
    },
    {
      "inputs": [
        {
          "internalType": "uint256",
          "name": "tokenId_",
          "type": "uint256"
        },
        {
          "internalType": "uint256",
          "name": "price_",
          "type": "uint256"
        }
      ],
      "name": "changePetPrice",
      "outputs": [],
      "stateMutability": "nonpayable",
      "type": "function"
    }
  ],
  "bytecode": "0x60806040523480156200001157600080fd5b50604051620040ae380380620040ae833981810160405281019062000037919062000296565b828260006200004b6200015660201b60201c565b9050806000806101000a81548173ffffffffffffffffffffffffffffffffffffffff021916908373ffffffffffffffffffffffffffffffffffffffff1602179055508073ffffffffffffffffffffffffffffffffffffffff16600073ffffffffffffffffffffffffffffffffffffffff167f8be0079c531659141344cd1fd0a4f28419497f9722a3daafe3b4186f6b6457e060405160405180910390a35081600190805190602001906200010192919062000174565b5080600290805190602001906200011a92919062000174565b50505080600990805190602001906200013592919062000174565b506200014d60086200015e60201b620017331760201c565b505050620004a7565b600033905090565b6001816000016000828254019250508190555050565b8280546200018290620003cc565b90600052602060002090601f016020900481019282620001a65760008555620001f2565b82601f10620001c157805160ff1916838001178555620001f2565b82800160010185558215620001f2579182015b82811115620001f1578251825591602001919060010190620001d4565b5b50905062000201919062000205565b5090565b5b808211156200022057600081600090555060010162000206565b5090565b60006200023b620002358462000360565b62000337565b9050828152602081018484840111156200025457600080fd5b6200026184828562000396565b509392505050565b600082601f8301126200027b57600080fd5b81516200028d84826020860162000224565b91505092915050565b600080600060608486031215620002ac57600080fd5b600084015167ffffffffffffffff811115620002c757600080fd5b620002d58682870162000269565b935050602084015167ffffffffffffffff811115620002f357600080fd5b620003018682870162000269565b925050604084015167ffffffffffffffff8111156200031f57600080fd5b6200032d8682870162000269565b9150509250925092565b60006200034362000356565b905062000351828262000402565b919050565b6000604051905090565b600067ffffffffffffffff8211156200037e576200037d62000467565b5b620003898262000496565b9050602081019050919050565b60005b83811015620003b657808201518184015260208101905062000399565b83811115620003c6576000848401525b50505050565b60006002820490506001821680620003e557607f821691505b60208210811415620003fc57620003fb62000438565b5b50919050565b6200040d8262000496565b810181811067ffffffffffffffff821117156200042f576200042e62000467565b5b80604052505050565b7f4e487b7100000000000000000000000000000000000000000000000000000000600052602260045260246000fd5b7f4e487b7100000000000000000000000000000000000000000000000000000000600052604160045260246000fd5b6000601f19601f8301169050919050565b613bf780620004b76000396000f3fe6080604052600436106101395760003560e01c8063715018a6116100ab578063b88d4fde1161006f578063b88d4fde1461044b578063c87b56dd14610474578063d749e429146104b1578063e5afe3e6146104ee578063e985e9c51461052b578063f2fde38b1461056857610143565b8063715018a6146103855780638da5cb5b1461039c57806395d89b41146103c75780639edded11146103f2578063a22cb4651461042257610143565b806342842e0e116100fd57806342842e0e1461023f5780634ae84495146102685780635e760e3d146102915780636352211e146102ce5780636a6ca9961461030b57806370a082311461034857610143565b806301ffc9a71461014857806306fdde0314610185578063081812fc146101b0578063095ea7b3146101ed57806323b872dd1461021657610143565b3661014357600080fd5b600080fd5b34801561015457600080fd5b5061016f600480360381019061016a9190612962565b610591565b60405161017c9190612e53565b60405180910390f35b34801561019157600080fd5b5061019a610673565b6040516101a79190612e6e565b60405180910390f35b3480156101bc57600080fd5b506101d760048036038101906101d291906129b4565b610705565b6040516101e49190612dec565b60405180910390f35b3480156101f957600080fd5b50610214600480360381019061020f91906128bf565b61078a565b005b34801561022257600080fd5b5061023d600480360381019061023891906127b9565b6108a2565b005b34801561024b57600080fd5b50610266600480360381019061026191906127b9565b610902565b005b34801561027457600080fd5b5061028f600480360381019061028a91906129dd565b610922565b005b34801561029d57600080fd5b506102b860048036038101906102b391906128fb565b610a36565b6040516102c59190613130565b60405180910390f35b3480156102da57600080fd5b506102f560048036038101906102f091906129b4565b610b81565b6040516103029190612dec565b60405180910390f35b34801561031757600080fd5b50610332600480360381019061032d91906129b4565b610c33565b60405161033f9190612e53565b60405180910390f35b34801561035457600080fd5b5061036f600480360381019061036a9190612754565b610c53565b60405161037c9190613130565b60405180910390f35b34801561039157600080fd5b5061039a610d0b565b005b3480156103a857600080fd5b506103b1610e45565b6040516103be9190612dec565b60405180910390f35b3480156103d357600080fd5b506103dc610e6e565b6040516103e99190612e6e565b60405180910390f35b61040c600480360381019061040791906129b4565b610f00565b6040516104199190612e53565b60405180910390f35b34801561042e57600080fd5b5061044960048036038101906104449190612883565b61115f565b005b34801561045757600080fd5b50610472600480360381019061046d9190612808565b6112e0565b005b34801561048057600080fd5b5061049b600480360381019061049691906129b4565b611342565b6040516104a89190612e6e565b60405180910390f35b3480156104bd57600080fd5b506104d860048036038101906104d391906129b4565b611494565b6040516104e59190613130565b60405180910390f35b3480156104fa57600080fd5b50610515600480360381019061051091906129b4565b6114de565b6040516105229190613130565b60405180910390f35b34801561053757600080fd5b50610552600480360381019061054d919061277d565b6114f6565b60405161055f9190612e53565b60405180910390f35b34801561057457600080fd5b5061058f600480360381019061058a9190612754565b61158a565b005b60007f80ac58cd000000000000000000000000000000000000000000000000000000007bffffffffffffffffffffffffffffffffffffffffffffffffffffffff1916827bffffffffffffffffffffffffffffffffffffffffffffffffffffffff1916148061065c57507f5b5e139f000000000000000000000000000000000000000000000000000000007bffffffffffffffffffffffffffffffffffffffffffffffffffffffff1916827bffffffffffffffffffffffffffffffffffffffffffffffffffffffff1916145b8061066c575061066b82611749565b5b9050919050565b60606001805461068290613424565b80601f01602080910402602001604051908101604052809291908181526020018280546106ae90613424565b80156106fb5780601f106106d0576101008083540402835291602001916106fb565b820191906000526020600020905b8154815290600101906020018083116106de57829003601f168201915b5050505050905090565b6000610710826117b3565b61074f576040517f08c379a000000000000000000000000000000000000000000000000000000000815260040161074690613050565b60405180910390fd5b6005600083815260200190815260200160002060009054906101000a900473ffffffffffffffffffffffffffffffffffffffff169050919050565b600061079582610b81565b90508073ffffffffffffffffffffffffffffffffffffffff168373ffffffffffffffffffffffffffffffffffffffff161415610806576040517f08c379a00000000000000000000000000000000000000000000000000000000081526004016107fd906130d0565b60405180910390fd5b8073ffffffffffffffffffffffffffffffffffffffff1661082561181f565b73ffffffffffffffffffffffffffffffffffffffff16148061085457506108538161084e61181f565b6114f6565b5b610893576040517f08c379a000000000000000000000000000000000000000000000000000000000815260040161088a90612f70565b60405180910390fd5b61089d8383611827565b505050565b6108b36108ad61181f565b826118e0565b6108f2576040517f08c379a00000000000000000000000000000000000000000000000000000000081526004016108e990613110565b60405180910390fd5b6108fd8383836119be565b505050565b61091d838383604051806020016040528060008152506112e0565b505050565b6000821180156109375750610936826117b3565b5b610976576040517f08c379a000000000000000000000000000000000000000000000000000000000815260040161096d90612f90565b60405180910390fd5b61098761098161181f565b836118e0565b6109c6576040517f08c379a00000000000000000000000000000000000000000000000000000000081526004016109bd90613110565b60405180910390fd5b6000600a600084815260200190815260200160002054905081600a6000858152602001908152602001600020819055507f7defee47a4b53e8b11976db684ab082b666a4df44af8418fd3e51a48871581a7838284604051610a29939291906131b2565b60405180910390a1505050565b6000610a4061181f565b73ffffffffffffffffffffffffffffffffffffffff16610a5e610e45565b73ffffffffffffffffffffffffffffffffffffffff1614610ab4576040517f08c379a0000000000000000000000000000000000000000000000000000000008152600401610aab90613070565b60405180910390fd5b6000610ac06008611c1a565b9050610acc8582611c28565b610ad68184611c46565b83600a6000838152602001908152602001600020819055506001600b600083815260200190815260200160002060006101000a81548160ff021916908315150217905550610b246008611733565b8473ffffffffffffffffffffffffffffffffffffffff167fc8ae715a96c20393c5095d019261baa06ba01ae0d8d74c58544ffc50eea7b412828686604051610b6e93929190613174565b60405180910390a2809150509392505050565b6000806003600084815260200190815260200160002060009054906101000a900473ffffffffffffffffffffffffffffffffffffffff169050600073ffffffffffffffffffffffffffffffffffffffff168173ffffffffffffffffffffffffffffffffffffffff161415610c2a576040517f08c379a0000000000000000000000000000000000000000000000000000000008152600401610c2190612fd0565b60405180910390fd5b80915050919050565b600b6020528060005260406000206000915054906101000a900460ff1681565b60008073ffffffffffffffffffffffffffffffffffffffff168273ffffffffffffffffffffffffffffffffffffffff161415610cc4576040517f08c379a0000000000000000000000000000000000000000000000000000000008152600401610cbb90612fb0565b60405180910390fd5b600460008373ffffffffffffffffffffffffffffffffffffffff1673ffffffffffffffffffffffffffffffffffffffff168152602001908152602001600020549050919050565b610d1361181f565b73ffffffffffffffffffffffffffffffffffffffff16610d31610e45565b73ffffffffffffffffffffffffffffffffffffffff1614610d87576040517f08c379a0000000000000000000000000000000000000000000000000000000008152600401610d7e90613070565b60405180910390fd5b600073ffffffffffffffffffffffffffffffffffffffff1660008054906101000a900473ffffffffffffffffffffffffffffffffffffffff1673ffffffffffffffffffffffffffffffffffffffff167f8be0079c531659141344cd1fd0a4f28419497f9722a3daafe3b4186f6b6457e060405160405180910390a360008060006101000a81548173ffffffffffffffffffffffffffffffffffffffff021916908373ffffffffffffffffffffffffffffffffffffffff160217905550565b60008060009054906101000a900473ffffffffffffffffffffffffffffffffffffffff16905090565b606060028054610e7d90613424565b80601f0160208091040260200160405190810160405280929190818152602001828054610ea990613424565b8015610ef65780601f10610ecb57610100808354040283529160200191610ef6565b820191906000526020600020905b815481529060010190602001808311610ed957829003601f168201915b5050505050905090565b60008082118015610f165750610f15826117b3565b5b610f55576040517f08c379a0000000000000000000000000000000000000000000000000000000008152600401610f4c90612f90565b60405180910390fd5b6000610f6083610b81565b9050610f6a610e45565b73ffffffffffffffffffffffffffffffffffffffff163373ffffffffffffffffffffffffffffffffffffffff1614158015610fd157508073ffffffffffffffffffffffffffffffffffffffff163373ffffffffffffffffffffffffffffffffffffffff1614155b611010576040517f08c379a0000000000000000000000000000000000000000000000000000000008152600401611007906130f0565b60405180910390fd5b600a600084815260200190815260200160002054341015611066576040517f08c379a000000000000000000000000000000000000000000000000000000000815260040161105d90612e90565b60405180910390fd5b8073ffffffffffffffffffffffffffffffffffffffff166108fc349081150290604051600060405180830381858888f193505050501580156110ac573d6000803e3d6000fd5b506110ee8133856040518060400160405280602081526020017f50657473686f703a207573657220627579696e67206f776e6572277320706574815250611cba565b3373ffffffffffffffffffffffffffffffffffffffff168173ffffffffffffffffffffffffffffffffffffffff167f52018f43b2ef95a3ff5877e05af71c6767beeb06aa56995d0649ebe7c0c713d1853460405161114d92919061314b565b60405180910390a36001915050919050565b61116761181f565b73ffffffffffffffffffffffffffffffffffffffff168273ffffffffffffffffffffffffffffffffffffffff1614156111d5576040517f08c379a00000000000000000000000000000000000000000000000000000000081526004016111cc90612f30565b60405180910390fd5b80600660006111e261181f565b73ffffffffffffffffffffffffffffffffffffffff1673ffffffffffffffffffffffffffffffffffffffff16815260200190815260200160002060008473ffffffffffffffffffffffffffffffffffffffff1673ffffffffffffffffffffffffffffffffffffffff16815260200190815260200160002060006101000a81548160ff0219169083151502179055508173ffffffffffffffffffffffffffffffffffffffff1661128f61181f565b73ffffffffffffffffffffffffffffffffffffffff167f17307eab39ab6107e8899845ad3d59bd9653f200f220920489ca2b5937696c31836040516112d49190612e53565b60405180910390a35050565b6112f16112eb61181f565b836118e0565b611330576040517f08c379a000000000000000000000000000000000000000000000000000000000815260040161132790613110565b60405180910390fd5b61133c84848484611cba565b50505050565b606061134d826117b3565b61138c576040517f08c379a000000000000000000000000000000000000000000000000000000000815260040161138390613030565b60405180910390fd5b60006007600084815260200190815260200160002080546113ac90613424565b80601f01602080910402602001604051908101604052809291908181526020018280546113d890613424565b80156114255780601f106113fa57610100808354040283529160200191611425565b820191906000526020600020905b81548152906001019060200180831161140857829003601f168201915b505050505090506000611436611d16565b905060008151141561144c57819250505061148f565b600082511115611481578082604051602001611469929190612dc8565b6040516020818303038152906040529250505061148f565b61148a84611da8565b925050505b919050565b600061149f82611e4f565b7f4f065597acd69cb3754c7a450f4cefe957263a7b53af04e8d68ec840cc9a1333826040516114ce9190613130565b60405180910390a1819050919050565b600a6020528060005260406000206000915090505481565b6000600660008473ffffffffffffffffffffffffffffffffffffffff1673ffffffffffffffffffffffffffffffffffffffff16815260200190815260200160002060008373ffffffffffffffffffffffffffffffffffffffff1673ffffffffffffffffffffffffffffffffffffffff16815260200190815260200160002060009054906101000a900460ff16905092915050565b61159261181f565b73ffffffffffffffffffffffffffffffffffffffff166115b0610e45565b73ffffffffffffffffffffffffffffffffffffffff1614611606576040517f08c379a00000000000000000000000000000000000000000000000000000000081526004016115fd90613070565b60405180910390fd5b600073ffffffffffffffffffffffffffffffffffffffff168173ffffffffffffffffffffffffffffffffffffffff161415611676576040517f08c379a000000000000000000000000000000000000000000000000000000000815260040161166d90612ed0565b60405180910390fd5b8073ffffffffffffffffffffffffffffffffffffffff1660008054906101000a900473ffffffffffffffffffffffffffffffffffffffff1673ffffffffffffffffffffffffffffffffffffffff167f8be0079c531659141344cd1fd0a4f28419497f9722a3daafe3b4186f6b6457e060405160405180910390a3806000806101000a81548173ffffffffffffffffffffffffffffffffffffffff021916908373ffffffffffffffffffffffffffffffffffffffff16021790555050565b6001816000016000828254019250508190555050565b60007f01ffc9a7000000000000000000000000000000000000000000000000000000007bffffffffffffffffffffffffffffffffffffffffffffffffffffffff1916827bffffffffffffffffffffffffffffffffffffffffffffffffffffffff1916149050919050565b60008073ffffffffffffffffffffffffffffffffffffffff166003600084815260200190815260200160002060009054906101000a900473ffffffffffffffffffffffffffffffffffffffff1673ffffffffffffffffffffffffffffffffffffffff1614159050919050565b600033905090565b816005600083815260200190815260200160002060006101000a81548173ffffffffffffffffffffffffffffffffffffffff021916908373ffffffffffffffffffffffffffffffffffffffff160217905550808273ffffffffffffffffffffffffffffffffffffffff1661189a83610b81565b73ffffffffffffffffffffffffffffffffffffffff167f8c5be1e5ebec7d5bd14f71427d1e84f3dd0314c0f7b2291e5b200ac8c7c3b92560405160405180910390a45050565b60006118eb826117b3565b61192a576040517f08c379a000000000000000000000000000000000000000000000000000000000815260040161192190612f50565b60405180910390fd5b600061193583610b81565b90508073ffffffffffffffffffffffffffffffffffffffff168473ffffffffffffffffffffffffffffffffffffffff1614806119a457508373ffffffffffffffffffffffffffffffffffffffff1661198c84610705565b73ffffffffffffffffffffffffffffffffffffffff16145b806119b557506119b481856114f6565b5b91505092915050565b8273ffffffffffffffffffffffffffffffffffffffff166119de82610b81565b73ffffffffffffffffffffffffffffffffffffffff1614611a34576040517f08c379a0000000000000000000000000000000000000000000000000000000008152600401611a2b90613090565b60405180910390fd5b600073ffffffffffffffffffffffffffffffffffffffff168273ffffffffffffffffffffffffffffffffffffffff161415611aa4576040517f08c379a0000000000000000000000000000000000000000000000000000000008152600401611a9b90612f10565b60405180910390fd5b611aaf838383611ea2565b611aba600082611827565b6001600460008573ffffffffffffffffffffffffffffffffffffffff1673ffffffffffffffffffffffffffffffffffffffff1681526020019081526020016000206000828254611b0a919061333a565b925050819055506001600460008473ffffffffffffffffffffffffffffffffffffffff1673ffffffffffffffffffffffffffffffffffffffff1681526020019081526020016000206000828254611b6191906132b3565b92505081905550816003600083815260200190815260200160002060006101000a81548173ffffffffffffffffffffffffffffffffffffffff021916908373ffffffffffffffffffffffffffffffffffffffff160217905550808273ffffffffffffffffffffffffffffffffffffffff168473ffffffffffffffffffffffffffffffffffffffff167fddf252ad1be2c89b69c2b068fc378daa952ba7f163c4a11628f55a4df523b3ef60405160405180910390a4505050565b600081600001549050919050565b611c42828260405180602001604052806000815250611ea7565b5050565b611c4f826117b3565b611c8e576040517f08c379a0000000000000000000000000000000000000000000000000000000008152600401611c8590612ff0565b60405180910390fd5b80600760008481526020019081526020016000209080519060200190611cb5929190612538565b505050565b611cc58484846119be565b611cd184848484611f02565b611d10576040517f08c379a0000000000000000000000000000000000000000000000000000000008152600401611d0790612eb0565b60405180910390fd5b50505050565b606060098054611d2590613424565b80601f0160208091040260200160405190810160405280929190818152602001828054611d5190613424565b8015611d9e5780601f10611d7357610100808354040283529160200191611d9e565b820191906000526020600020905b815481529060010190602001808311611d8157829003601f168201915b5050505050905090565b6060611db3826117b3565b611df2576040517f08c379a0000000000000000000000000000000000000000000000000000000008152600401611de9906130b0565b60405180910390fd5b6000611dfc611d16565b90506000815111611e1c5760405180602001604052806000815250611e47565b80611e2684612099565b604051602001611e37929190612dc8565b6040516020818303038152906040525b915050919050565b611e5881612246565b6000600760008381526020019081526020016000208054611e7890613424565b905014611e9f57600760008281526020019081526020016000206000611e9e91906125be565b5b50565b505050565b611eb18383612357565b611ebe6000848484611f02565b611efd576040517f08c379a0000000000000000000000000000000000000000000000000000000008152600401611ef490612eb0565b60405180910390fd5b505050565b6000611f238473ffffffffffffffffffffffffffffffffffffffff16612525565b1561208c578373ffffffffffffffffffffffffffffffffffffffff1663150b7a02611f4c61181f565b8786866040518563ffffffff1660e01b8152600401611f6e9493929190612e07565b602060405180830381600087803b158015611f8857600080fd5b505af1925050508015611fb957506040513d601f19601f82011682018060405250810190611fb6919061298b565b60015b61203c573d8060008114611fe9576040519150601f19603f3d011682016040523d82523d6000602084013e611fee565b606091505b50600081511415612034576040517f08c379a000000000000000000000000000000000000000000000000000000000815260040161202b90612eb0565b60405180910390fd5b805181602001fd5b63150b7a0260e01b7bffffffffffffffffffffffffffffffffffffffffffffffffffffffff1916817bffffffffffffffffffffffffffffffffffffffffffffffffffffffff191614915050612091565b600190505b949350505050565b606060008214156120e1576040518060400160405280600181526020017f30000000000000000000000000000000000000000000000000000000000000008152509050612241565b600082905060005b600082146121135780806120fc90613487565b915050600a8261210c9190613309565b91506120e9565b60008167ffffffffffffffff811115612155577f4e487b7100000000000000000000000000000000000000000000000000000000600052604160045260246000fd5b6040519080825280601f01601f1916602001820160405280156121875781602001600182028036833780820191505090505b5090505b6000851461223a576001826121a0919061333a565b9150600a856121af91906134d0565b60306121bb91906132b3565b60f81b8183815181106121f7577f4e487b7100000000000000000000000000000000000000000000000000000000600052603260045260246000fd5b60200101907effffffffffffffffffffffffffffffffffffffffffffffffffffffffffffff1916908160001a905350600a856122339190613309565b945061218b565b8093505050505b919050565b600061225182610b81565b905061225f81600084611ea2565b61226a600083611827565b6001600460008373ffffffffffffffffffffffffffffffffffffffff1673ffffffffffffffffffffffffffffffffffffffff16815260200190815260200160002060008282546122ba919061333a565b925050819055506003600083815260200190815260200160002060006101000a81549073ffffffffffffffffffffffffffffffffffffffff021916905581600073ffffffffffffffffffffffffffffffffffffffff168273ffffffffffffffffffffffffffffffffffffffff167fddf252ad1be2c89b69c2b068fc378daa952ba7f163c4a11628f55a4df523b3ef60405160405180910390a45050565b600073ffffffffffffffffffffffffffffffffffffffff168273ffffffffffffffffffffffffffffffffffffffff1614156123c7576040517f08c379a00000000000000000000000000000000000000000000000000000000081526004016123be90613010565b60405180910390fd5b6123d0816117b3565b15612410576040517f08c379a000000000000000000000000000000000000000000000000000000000815260040161240790612ef0565b60405180910390fd5b61241c60008383611ea2565b6001600460008473ffffffffffffffffffffffffffffffffffffffff1673ffffffffffffffffffffffffffffffffffffffff168152602001908152602001600020600082825461246c91906132b3565b92505081905550816003600083815260200190815260200160002060006101000a81548173ffffffffffffffffffffffffffffffffffffffff021916908373ffffffffffffffffffffffffffffffffffffffff160217905550808273ffffffffffffffffffffffffffffffffffffffff16600073ffffffffffffffffffffffffffffffffffffffff167fddf252ad1be2c89b69c2b068fc378daa952ba7f163c4a11628f55a4df523b3ef60405160405180910390a45050565b600080823b905060008111915050919050565b82805461254490613424565b90600052602060002090601f01602090048101928261256657600085556125ad565b82601f1061257f57805160ff19168380011785556125ad565b828001600101855582156125ad579182015b828111156125ac578251825591602001919060010190612591565b5b5090506125ba91906125fe565b5090565b5080546125ca90613424565b6000825580601f106125dc57506125fb565b601f0160209004906000526020600020908101906125fa91906125fe565b5b50565b5b808211156126175760008160009055506001016125ff565b5090565b600061262e6126298461320e565b6131e9565b90508281526020810184848401111561264657600080fd5b6126518482856133e2565b509392505050565b600061266c6126678461323f565b6131e9565b90508281526020810184848401111561268457600080fd5b61268f8482856133e2565b509392505050565b6000813590506126a681613b65565b92915050565b6000813590506126bb81613b7c565b92915050565b6000813590506126d081613b93565b92915050565b6000815190506126e581613b93565b92915050565b600082601f8301126126fc57600080fd5b813561270c84826020860161261b565b91505092915050565b600082601f83011261272657600080fd5b8135612736848260208601612659565b91505092915050565b60008135905061274e81613baa565b92915050565b60006020828403121561276657600080fd5b600061277484828501612697565b91505092915050565b6000806040838503121561279057600080fd5b600061279e85828601612697565b92505060206127af85828601612697565b9150509250929050565b6000806000606084860312156127ce57600080fd5b60006127dc86828701612697565b93505060206127ed86828701612697565b92505060406127fe8682870161273f565b9150509250925092565b6000806000806080858703121561281e57600080fd5b600061282c87828801612697565b945050602061283d87828801612697565b935050604061284e8782880161273f565b925050606085013567ffffffffffffffff81111561286b57600080fd5b612877878288016126eb565b91505092959194509250565b6000806040838503121561289657600080fd5b60006128a485828601612697565b92505060206128b5858286016126ac565b9150509250929050565b600080604083850312156128d257600080fd5b60006128e085828601612697565b92505060206128f18582860161273f565b9150509250929050565b60008060006060848603121561291057600080fd5b600061291e86828701612697565b935050602061292f8682870161273f565b925050604084013567ffffffffffffffff81111561294c57600080fd5b61295886828701612715565b9150509250925092565b60006020828403121561297457600080fd5b6000612982848285016126c1565b91505092915050565b60006020828403121561299d57600080fd5b60006129ab848285016126d6565b91505092915050565b6000602082840312156129c657600080fd5b60006129d48482850161273f565b91505092915050565b600080604083850312156129f057600080fd5b60006129fe8582860161273f565b9250506020612a0f8582860161273f565b9150509250929050565b612a228161336e565b82525050565b612a3181613380565b82525050565b6000612a4282613270565b612a4c8185613286565b9350612a5c8185602086016133f1565b612a65816135bd565b840191505092915050565b6000612a7b8261327b565b612a858185613297565b9350612a958185602086016133f1565b612a9e816135bd565b840191505092915050565b6000612ab48261327b565b612abe81856132a8565b9350612ace8185602086016133f1565b80840191505092915050565b6000612ae7602483613297565b9150612af2826135ce565b604082019050919050565b6000612b0a603283613297565b9150612b158261361d565b604082019050919050565b6000612b2d602683613297565b9150612b388261366c565b604082019050919050565b6000612b50601c83613297565b9150612b5b826136bb565b602082019050919050565b6000612b73602483613297565b9150612b7e826136e4565b604082019050919050565b6000612b96601983613297565b9150612ba182613733565b602082019050919050565b6000612bb9602c83613297565b9150612bc48261375c565b604082019050919050565b6000612bdc603883613297565b9150612be7826137ab565b604082019050919050565b6000612bff601a83613297565b9150612c0a826137fa565b602082019050919050565b6000612c22602a83613297565b9150612c2d82613823565b604082019050919050565b6000612c45602983613297565b9150612c5082613872565b604082019050919050565b6000612c68602e83613297565b9150612c73826138c1565b604082019050919050565b6000612c8b602083613297565b9150612c9682613910565b602082019050919050565b6000612cae603183613297565b9150612cb982613939565b604082019050919050565b6000612cd1602c83613297565b9150612cdc82613988565b604082019050919050565b6000612cf4602083613297565b9150612cff826139d7565b602082019050919050565b6000612d17602983613297565b9150612d2282613a00565b604082019050919050565b6000612d3a602f83613297565b9150612d4582613a4f565b604082019050919050565b6000612d5d602183613297565b9150612d6882613a9e565b604082019050919050565b6000612d80601983613297565b9150612d8b82613aed565b602082019050919050565b6000612da3603183613297565b9150612dae82613b16565b604082019050919050565b612dc2816133d8565b82525050565b6000612dd48285612aa9565b9150612de08284612aa9565b91508190509392505050565b6000602082019050612e016000830184612a19565b92915050565b6000608082019050612e1c6000830187612a19565b612e296020830186612a19565b612e366040830185612db9565b8181036060830152612e488184612a37565b905095945050505050565b6000602082019050612e686000830184612a28565b92915050565b60006020820190508181036000830152612e888184612a70565b905092915050565b60006020820190508181036000830152612ea981612ada565b9050919050565b60006020820190508181036000830152612ec981612afd565b9050919050565b60006020820190508181036000830152612ee981612b20565b9050919050565b60006020820190508181036000830152612f0981612b43565b9050919050565b60006020820190508181036000830152612f2981612b66565b9050919050565b60006020820190508181036000830152612f4981612b89565b9050919050565b60006020820190508181036000830152612f6981612bac565b9050919050565b60006020820190508181036000830152612f8981612bcf565b9050919050565b60006020820190508181036000830152612fa981612bf2565b9050919050565b60006020820190508181036000830152612fc981612c15565b9050919050565b60006020820190508181036000830152612fe981612c38565b9050919050565b6000602082019050818103600083015261300981612c5b565b9050919050565b6000602082019050818103600083015261302981612c7e565b9050919050565b6000602082019050818103600083015261304981612ca1565b9050919050565b6000602082019050818103600083015261306981612cc4565b9050919050565b6000602082019050818103600083015261308981612ce7565b9050919050565b600060208201905081810360008301526130a981612d0a565b9050919050565b600060208201905081810360008301526130c981612d2d565b9050919050565b600060208201905081810360008301526130e981612d50565b9050919050565b6000602082019050818103600083015261310981612d73565b9050919050565b6000602082019050818103600083015261312981612d96565b9050919050565b60006020820190506131456000830184612db9565b92915050565b60006040820190506131606000830185612db9565b61316d6020830184612db9565b9392505050565b60006060820190506131896000830186612db9565b6131966020830185612db9565b81810360408301526131a88184612a70565b9050949350505050565b60006060820190506131c76000830186612db9565b6131d46020830185612db9565b6131e16040830184612db9565b949350505050565b60006131f3613204565b90506131ff8282613456565b919050565b6000604051905090565b600067ffffffffffffffff8211156132295761322861358e565b5b613232826135bd565b9050602081019050919050565b600067ffffffffffffffff82111561325a5761325961358e565b5b613263826135bd565b9050602081019050919050565b600081519050919050565b600081519050919050565b600082825260208201905092915050565b600082825260208201905092915050565b600081905092915050565b60006132be826133d8565b91506132c9836133d8565b9250827fffffffffffffffffffffffffffffffffffffffffffffffffffffffffffffffff038211156132fe576132fd613501565b5b828201905092915050565b6000613314826133d8565b915061331f836133d8565b92508261332f5761332e613530565b5b828204905092915050565b6000613345826133d8565b9150613350836133d8565b92508282101561336357613362613501565b5b828203905092915050565b6000613379826133b8565b9050919050565b60008115159050919050565b60007fffffffff0000000000000000000000000000000000000000000000000000000082169050919050565b600073ffffffffffffffffffffffffffffffffffffffff82169050919050565b6000819050919050565b82818337600083830152505050565b60005b8381101561340f5780820151818401526020810190506133f4565b8381111561341e576000848401525b50505050565b6000600282049050600182168061343c57607f821691505b602082108114156134505761344f61355f565b5b50919050565b61345f826135bd565b810181811067ffffffffffffffff8211171561347e5761347d61358e565b5b80604052505050565b6000613492826133d8565b91507fffffffffffffffffffffffffffffffffffffffffffffffffffffffffffffffff8214156134c5576134c4613501565b5b600182019050919050565b60006134db826133d8565b91506134e6836133d8565b9250826134f6576134f5613530565b5b828206905092915050565b7f4e487b7100000000000000000000000000000000000000000000000000000000600052601160045260246000fd5b7f4e487b7100000000000000000000000000000000000000000000000000000000600052601260045260246000fd5b7f4e487b7100000000000000000000000000000000000000000000000000000000600052602260045260246000fd5b7f4e487b7100000000000000000000000000000000000000000000000000000000600052604160045260246000fd5b6000601f19601f8301169050919050565b7f50657473686f703a2050726f766964652076616c696420707269636520666f7260008201527f2070657400000000000000000000000000000000000000000000000000000000602082015250565b7f4552433732313a207472616e7366657220746f206e6f6e20455243373231526560008201527f63656976657220696d706c656d656e7465720000000000000000000000000000602082015250565b7f4f776e61626c653a206e6577206f776e657220697320746865207a65726f206160008201527f6464726573730000000000000000000000000000000000000000000000000000602082015250565b7f4552433732313a20746f6b656e20616c7265616479206d696e74656400000000600082015250565b7f4552433732313a207472616e7366657220746f20746865207a65726f2061646460008201527f7265737300000000000000000000000000000000000000000000000000000000602082015250565b7f4552433732313a20617070726f766520746f2063616c6c657200000000000000600082015250565b7f4552433732313a206f70657261746f7220717565727920666f72206e6f6e657860008201527f697374656e7420746f6b656e0000000000000000000000000000000000000000602082015250565b7f4552433732313a20617070726f76652063616c6c6572206973206e6f74206f7760008201527f6e6572206e6f7220617070726f76656420666f7220616c6c0000000000000000602082015250565b7f50657473686f703a20746f6b656e4964206e6f742076616c6964000000000000600082015250565b7f4552433732313a2062616c616e636520717565727920666f7220746865207a6560008201527f726f206164647265737300000000000000000000000000000000000000000000602082015250565b7f4552433732313a206f776e657220717565727920666f72206e6f6e657869737460008201527f656e7420746f6b656e0000000000000000000000000000000000000000000000602082015250565b7f45524337323155524953746f726167653a2055524920736574206f66206e6f6e60008201527f6578697374656e7420746f6b656e000000000000000000000000000000000000602082015250565b7f4552433732313a206d696e7420746f20746865207a65726f2061646472657373600082015250565b7f45524337323155524953746f726167653a2055524920717565727920666f722060008201527f6e6f6e6578697374656e7420746f6b656e000000000000000000000000000000602082015250565b7f4552433732313a20617070726f76656420717565727920666f72206e6f6e657860008201527f697374656e7420746f6b656e0000000000000000000000000000000000000000602082015250565b7f4f776e61626c653a2063616c6c6572206973206e6f7420746865206f776e6572600082015250565b7f4552433732313a207472616e73666572206f6620746f6b656e2074686174206960008201527f73206e6f74206f776e0000000000000000000000000000000000000000000000602082015250565b7f4552433732314d657461646174613a2055524920717565727920666f72206e6f60008201527f6e6578697374656e7420746f6b656e0000000000000000000000000000000000602082015250565b7f4552433732313a20617070726f76616c20746f2063757272656e74206f776e6560008201527f7200000000000000000000000000000000000000000000000000000000000000602082015250565b7f50657473686f703a204f776e65722063616e27742063616c6c00000000000000600082015250565b7f4552433732313a207472616e736665722063616c6c6572206973206e6f74206f60008201527f776e6572206e6f7220617070726f766564000000000000000000000000000000602082015250565b613b6e8161336e565b8114613b7957600080fd5b50565b613b8581613380565b8114613b9057600080fd5b50565b613b9c8161338c565b8114613ba757600080fd5b50565b613bb3816133d8565b8114613bbe57600080fd5b5056fea264697066735822122008b02000794d67ab7b58ca3f74b8530d60bf3f68b5f6fa86b0a710ed93d918bc64736f6c63430008040033",
  "immutableReferences": {},
  "source": "// SPDX-License-Identifier: MIT\r\npragma solidity ^0.8.0;\r\n\r\n// import \"https://github.com/OpenZeppelin/openzeppelin-contracts/blob/release-v4.1/contracts/token/ERC721/ERC721.sol\";\r\n// import \"https://github.com/OpenZeppelin/openzeppelin-contracts/blob/release-v4.1/contracts/token/ERC721/extensions/ERC721URIStorage.sol\";\r\n// import \"https://github.com/OpenZeppelin/openzeppelin-contracts/blob/release-v4.1/contracts/utils/Context.sol\";\r\n// import \"https://github.com/OpenZeppelin/openzeppelin-contracts/blob/release-v4.1/contracts/utils/Counters.sol\";\r\n// import \"https://github.com/OpenZeppelin/openzeppelin-contracts/blob/release-v4.1/contracts/access/Ownable.sol\";\r\n\r\nimport \"@openzeppelin/contracts/token/ERC721/ERC721.sol\";\r\nimport \"@openzeppelin/contracts/token/ERC721/extensions/ERC721URIStorage.sol\";\r\nimport \"@openzeppelin/contracts/utils/Context.sol\";\r\nimport \"@openzeppelin/contracts/utils/Counters.sol\";\r\nimport \"@openzeppelin/contracts/access/Ownable.sol\";\r\n\r\n/**\r\n * @dev {ERC721} token, including:\r\n *\r\n *  - ability for holders to burn (destroy) their tokens\r\n *  - owner can mint new pets\r\n *  - owner can set the price of pet\r\n *  - user can buy pet with ether\r\n *\r\n * This contract uses {AccessControl} to lock permissioned functions using the\r\n * different roles - head to its documentation for details.\r\n *\r\n * The account that deploys the contract will be granted the minter and pauser\r\n * roles, as well as the default admin role, which will let it grant both minter\r\n * and pauser roles to other accounts.\r\n */\r\ncontract Petshop is Context, Ownable, ERC721URIStorage {\r\n    using Counters for Counters.Counter;\r\n\r\n    // tokenId tracker using lib\r\n    Counters.Counter private _tokenIdTracker;\r\n\r\n    // baseURI for metadata\r\n    string private _baseTokenURI;\r\n\r\n    // Token prices\r\n    mapping(uint256 => uint256) public tokenPrices;\r\n\r\n    // Boolean values either pets are on sale or not\r\n    mapping(uint256 => bool) public petsOnSale;\r\n\r\n    event PetCreated(\r\n        address indexed owner,\r\n        uint256 tokenId,\r\n        uint256 price,\r\n        string tokenURI\r\n    );\r\n\r\n    event PetPurchase(\r\n        address indexed prevOwner,\r\n        address indexed newOwner,\r\n        uint256 tokenId,\r\n        uint256 price\r\n    );\r\n\r\n    event PetDeleted(uint256 tokenId);\r\n\r\n    event PetPriceChanged(uint256 tokenId, uint256 prevPrice, uint256 newPrice);\r\n\r\n    constructor(\r\n        string memory name,\r\n        string memory symbol,\r\n        string memory baseTokenURI\r\n    ) ERC721(name, symbol) {\r\n        _baseTokenURI = baseTokenURI;\r\n\r\n        // start from tokenId 1\r\n        _tokenIdTracker.increment();\r\n    }\r\n\r\n    receive() external payable {\r\n        revert();\r\n    }\r\n\r\n    function _baseURI() internal view virtual override returns (string memory) {\r\n        return _baseTokenURI;\r\n    }\r\n\r\n    /**\r\n     * @dev Creates a new token to 'to_'. Its token ID will be automatically\r\n     * assigned (and available on the emitted {IERC721-Transfer} event), and the token\r\n     * URI will be set\r\n     *\r\n     * @param to_ the address to which pet is minted to\r\n     * @param price_ the price of the pet\r\n     * @param tokenURI_ the token URI of the pet\r\n     *\r\n     * Requirements:\r\n     *\r\n     * - the caller must have be the owner of Petshop\r\n     */\r\n    function createPet(\r\n        address to_,\r\n        uint256 price_,\r\n        string memory tokenURI_\r\n    ) public virtual onlyOwner() returns (uint256) {\r\n        uint256 tokenId_ = _tokenIdTracker.current();\r\n\r\n        // mint pet\r\n        _safeMint(to_, tokenId_);\r\n\r\n        // set tokenURI of pet\r\n        _setTokenURI(tokenId_, tokenURI_);\r\n\r\n        // set the price of pet\r\n        tokenPrices[tokenId_] = price_;\r\n\r\n        // set onsale to true\r\n        petsOnSale[tokenId_] = true;\r\n\r\n        // increment the tokenId\r\n        _tokenIdTracker.increment();\r\n\r\n        // emit event\r\n        emit PetCreated(to_, tokenId_, price_, tokenURI_);\r\n\r\n        // new tokenId\r\n        return tokenId_;\r\n    }\r\n\r\n    function deletePet(uint256 tokenId_) public virtual returns (uint256) {\r\n        // burn tokenId\r\n        _burn(tokenId_);\r\n\r\n        // emit event\r\n        emit PetDeleted(tokenId_);\r\n\r\n        // deleted tokenId\r\n        return tokenId_;\r\n    }\r\n\r\n    /**\r\n     * @dev Anyone can buy pet by giving the amount of ether\r\n     *\r\n     * @param tokenId_ the tokenId to be bought\r\n     *\r\n     * Requirements:\r\n     *\r\n     * - the caller must provide ether price of pet\r\n     */\r\n    function buyPet(uint256 tokenId_) public payable returns (bool) {\r\n        require(\r\n            tokenId_ > 0 && _exists(tokenId_),\r\n            \"Petshop: tokenId not valid\"\r\n        );\r\n        address prevOwner = ownerOf(tokenId_);\r\n        require(\r\n            msg.sender != owner() && msg.sender != prevOwner,\r\n            \"Petshop: Owner can't call\"\r\n        );\r\n        require(\r\n            msg.value >= tokenPrices[tokenId_],\r\n            \"Petshop: Provide valid price for pet\"\r\n        );\r\n\r\n        // transfer funds to owner\r\n        payable(prevOwner).transfer(msg.value);\r\n\r\n        // transfer pet to new user (clears approvals too)\r\n        _safeTransfer(\r\n            prevOwner,\r\n            msg.sender,\r\n            tokenId_,\r\n            \"Petshop: user buying owner's pet\"\r\n        );\r\n\r\n        emit PetPurchase(prevOwner, msg.sender, tokenId_, msg.value);\r\n\r\n        // purchase successful\r\n        return true;\r\n    }\r\n\r\n    /**\r\n     * @dev Anyone can buy pet by giving the amount of ether\r\n     *\r\n     * @param tokenId_ the tokenId to be bought\r\n     * @param price_ price value to be changed\r\n     *\r\n     * Requirements:\r\n     *\r\n     * - the caller must be the owner or isApproved of the pet\r\n     */\r\n    function changePetPrice(uint256 tokenId_, uint256 price_) public {\r\n        require(\r\n            tokenId_ > 0 && _exists(tokenId_),\r\n            \"Petshop: tokenId not valid\"\r\n        );\r\n        require(\r\n            _isApprovedOrOwner(_msgSender(), tokenId_),\r\n            \"ERC721: transfer caller is not owner nor approved\"\r\n        );\r\n\r\n        uint256 prevPrice_ = tokenPrices[tokenId_];\r\n        tokenPrices[tokenId_] = price_;\r\n\r\n        emit PetPriceChanged(tokenId_, prevPrice_, price_);\r\n    }\r\n}\r\n",
  "sourcePath": "F:/Education/PIAIC/Blockchain/Q4/Assignments/petshop-ipfs-dapp/contracts/Petshop.sol",
  "compiler": {
    "name": "solc",
    "version": "0.8.4+commit.c7e474f2.Emscripten.clang"
  },
  "schemaVersion": "3.3.4",
  "updatedAt": "2021-05-08T15:25:49.619Z",
  "networkType": "ethereum",
  "devdoc": {
    "details": "{ERC721} token, including:  - ability for holders to burn (destroy) their tokens  - owner can mint new pets  - owner can set the price of pet  - user can buy pet with ether This contract uses {AccessControl} to lock permissioned functions using the different roles - head to its documentation for details. The account that deploys the contract will be granted the minter and pauser roles, as well as the default admin role, which will let it grant both minter and pauser roles to other accounts.",
    "kind": "dev",
    "methods": {
      "approve(address,uint256)": {
        "details": "See {IERC721-approve}."
      },
      "balanceOf(address)": {
        "details": "See {IERC721-balanceOf}."
      },
      "buyPet(uint256)": {
        "details": "Anyone can buy pet by giving the amount of ether",
        "params": {
          "tokenId_": "the tokenId to be bought Requirements: - the caller must provide ether price of pet"
        }
      },
      "changePetPrice(uint256,uint256)": {
        "details": "Anyone can buy pet by giving the amount of ether",
        "params": {
          "price_": "price value to be changed Requirements: - the caller must be the owner or isApproved of the pet",
          "tokenId_": "the tokenId to be bought"
        }
      },
      "createPet(address,uint256,string)": {
        "details": "Creates a new token to 'to_'. Its token ID will be automatically assigned (and available on the emitted {IERC721-Transfer} event), and the token URI will be set",
        "params": {
          "price_": "the price of the pet",
          "to_": "the address to which pet is minted to",
          "tokenURI_": "the token URI of the pet Requirements: - the caller must have be the owner of Petshop"
        }
      },
      "getApproved(uint256)": {
        "details": "See {IERC721-getApproved}."
      },
      "isApprovedForAll(address,address)": {
        "details": "See {IERC721-isApprovedForAll}."
      },
      "name()": {
        "details": "See {IERC721Metadata-name}."
      },
      "owner()": {
        "details": "Returns the address of the current owner."
      },
      "ownerOf(uint256)": {
        "details": "See {IERC721-ownerOf}."
      },
      "renounceOwnership()": {
        "details": "Leaves the contract without owner. It will not be possible to call `onlyOwner` functions anymore. Can only be called by the current owner. NOTE: Renouncing ownership will leave the contract without an owner, thereby removing any functionality that is only available to the owner."
      },
      "safeTransferFrom(address,address,uint256)": {
        "details": "See {IERC721-safeTransferFrom}."
      },
      "safeTransferFrom(address,address,uint256,bytes)": {
        "details": "See {IERC721-safeTransferFrom}."
      },
      "setApprovalForAll(address,bool)": {
        "details": "See {IERC721-setApprovalForAll}."
      },
      "supportsInterface(bytes4)": {
        "details": "See {IERC165-supportsInterface}."
      },
      "symbol()": {
        "details": "See {IERC721Metadata-symbol}."
      },
      "tokenURI(uint256)": {
        "details": "See {IERC721Metadata-tokenURI}."
      },
      "transferFrom(address,address,uint256)": {
        "details": "See {IERC721-transferFrom}."
      },
      "transferOwnership(address)": {
        "details": "Transfers ownership of the contract to a new account (`newOwner`). Can only be called by the current owner."
      }
    },
    "version": 1
  },
  "userdoc": {
    "kind": "user",
    "methods": {},
    "version": 1
  }
}